:02000002B0004C
:1040000000400B003C930B00000006000C00050272
:084010000401E50C00000000B2
:04401800F07D0B002C
:10401C0009480A49884208B505D0094A824202D0AB
:10402C00121A03F083FD0748074A0021121A03F005
:10403C008BFD014808BD00BF7CE50320A8920B0056
:10404C00E8E50320E8E50320EDE7032070B5074E13
:10405C00074C03F0E3FAA41BA4080025AC4200D1E2
:10406C0070BD56F8043B98470135F7E750920B00AA
:10407C0074920B0000F074BD08B500F0E9FCBDE8CB
:10408C00084003F083BA02F07BBA02F079BA02F06E
:10409C007FBA000008B5034A03490C2002F0C4F9AA
:1040AC00FEE700BFA5600B00047E0B000078B0FAA1
:1040BC0080F04009704701230370704708B501F088
:1040CC00F3FF034B1860BDE8084002F0E9B900BFEC
:1040DC0028E7032003682BB14268934202D21846AA
:1040EC0003F01CBD0020704738B50568044645B187
:1040FC0043689D4205D2284603F066FD0130054415
:10410C002560204638BDF8B5044647680D4621B9F0
:10411C0003687A1C4260D955F8BD084603F054FD7B
:10412C00A368461CF2199A42F6D8206832462946F2
:10413C00384403F0FBFC606830446060ECE700003E
:10414C0038B504460B46D0E901012568044A091A22
:10415C00284402F025FA636801300344636038BDDB
:10416C00197E0B0038B504460B46D0E901012568D1
:10417C00044A091A284402F013FA63680130034414
:10418C00636038BD1C7E0B0038B504460D4603F049
:10419C0047FB214602F0EAFA03F042FB036829468A
:1041AC009B68984703F03CFB002102F0E6FA03F011
:1041BC0037FB2146022202F0D6FA03F031FB0368EA
:1041CC005B699847044603F02BFB03685B699847CF
:1041DC000002E4B280B2204338BD08B50023437717
:1041EC00006803F035F8BDE8084001F078BE000027
:1041FC002DE9F0438F188FB0B942CDE9051706466B
:10420C008946904680F0C28005A80D88FFF76CFFA8
:10421C000368BB4280F0BA8005980378412B49D1E2
:10422C00013003F07BFC052837DDFF2447F27623B1
:10423C009D4200F0D38041D847F261239D4200F0AB
:10424C00A88047F264239D426BD046F670539D4282
:10425C0041D1784D784EDFF8F4810598B84280F062
:10426C0095800378412B4BD1013003F057FC052886
:10427C0039DDFF2405A8FFF737FFDDF81490294638
:10428C00484603F097FC014600283DD1204603F038
:10429C0035FA05A8FFF728FFDFE70598013003F092
:1042AC003DFC0028C1DB0598013003F037FC0E30D3
:1042BC00C4B2BBE705A8FFF70DFFF9E747F264733B
:1042CC009D424FD047F276739D4200F0978047F2A3
:1042DC0061739D426FD00023CDE90133022200921D
:1042EC00728B19463AE00598013003F017FC002850
:1042FC00BFDB0598013003F011FC0E30C4B2B9E7F6
:10430C0005A8FFF7E7FEF9E73146484603F052FCF3
:10431C0028B14146484603F04DFC0028B9D1012193
:10432C00B4E70AAB4549079307A810230025CDE94C
:10433C000853FFF7E8FE07A82146FFF701FF2046C8
:10434C0003F006FA014607A8FFF70CFF089BCDE91E
:10435C000155013B0093079B2A461421304600F07F
:10436C0083FA13E005A8FFF7BFFE03689F420DD93F
:10437C00A4B20121204603F0C1F905A8FFF7AAFE5B
:10438C00011E18BF0121204603F0C9F90FB0BDE88A
:10439C00F0830AAB079307A8102329490025CDE920
:1043AC000853FFF7B0FE07A82146FFF7C9FE2046C9
:1043BC0003F0E1F9C6E705A8FFF796FE03689F42F4
:1043CC00E4D9A4B20121204603F098F905A8FFF71F
:1043DC0081FE0146204603F0E5F9D7E720468DF82B
:1043EC00284001F07DFD03460AA823B1154A9342EB
:1043FC0001D09847CAE701F070FDC7E705A8FFF7A1
:10440C0073FE059B8DF81C40A3EB0901A8EB010181
:10441C002046CDE90A310C9101F06CFD03460AA946
:10442C0007A823B1084A934201D09847AEE701F0A0
:10443C0055FDABE7207E0B00237E0B002B7E0B0083
:10444C002E7E0B00E75E0B00E95E0B00277E0B0057
:10445C002DE9F0418CB004AF044605220068391DEB
:10446C0002F03DFC98B3052804D000202037BD464F
:10447C00BDE8F081B7F805305BBA9AB2A7F8053001
:10448C00B7F807305BBA1FFA83F8A7F80730002A91
:10449C00EBD03B7923BB01F01EFD0246E060607F50
:1044AC00B7F80730C0B9B7F80510012914D1092B9A
:1044BC000FD0C82B01D0042BD8D101256261204626
:1044CC00657700F07FFAFFF7F9FD01F008FD012098
:1044DC00CCE703236377C9E7581F18BF0120C5E752
:1044EC00B8F5806F03D92046FFF777FEEFE708F1A8
:1044FC0008036E46DB08A6EBC3039D4604AD20689B
:10450C004246294602F0EBFB80454FF000007FD17C
:10451C00B7F80730E85401F0DEFC3B79E060142B6F
:10452C0000F0A68048D80F2B00F0A28007D8022BF1
:10453C0048D0062B51D02046FFF74FFE58E0112BE8
:10454C00F9D100233B70B7F807302B449D42C7E9E3
:10455C0003534DD207F10C00D5F80080FFF7C4FDD2
:10456C00FB68B7F807105D1B4D1BC7E905357B6869
:10457C00FD61C3F30F236383644B984500F0BF8048
:10458C0000F28C80A3F57F236FF4007213449845DE
:10459C0000F09D8079D8A3F50033063B984500F0D8
:1045AC009C8003F50033033398456BD107F114015C
:1045BC00384601F093FC65E0292B1BD0372B17D024
:1045CC001D2BB8D1637F43B901236377204600F0DC
:1045DC00F9F9FFF773FD01F082FC0023C821B7F84D
:1045EC0005200091CDE901331946204600F03CF935
:1045FC0001200DE0A3681BB9402001F0C1FFA060B1
:10460C00B7F80780A8444545C7E9055802D30020F0
:10461C00B5462BE729464022A06803F0DDFAA368D3
:10462C00002583F83F5007F11400FFF75DFD036888
:10463C0098451BD9786920B1BB69984214D203F014
:10464C0071FA85B2206802F003FE2368A2685A63EF
:10465C001D870023637701F03EFCA0F59C500838C1
:10466C00C4E903006061C3E72846EAE75025E9E79F
:10467C007B68B7F80720C3F30F23638329462046D2
:10468C00FFF7B6FD00236383B2E7214B9845F9D1C0
:10469C0007F11401384601F021FCF3E71D4B984556
:1046AC0021D003F19F6303F5003303F58073984524
:1046BC001FD003F16E4303F5302303F58673984541
:1046CC00E0D107F11401384601F008FCDAE707F1F4
:1046DC001401384601F002FCD4E707F11401384606
:1046EC0001F0FCFBCEE707F11401384601F0F6FBB4
:1046FC00C8E707F11401384601F0F0FBC2E707F1F7
:10470C001401384601F0EAFBBCE700BF7666730083
:10471C006462670061636F6E2DE9F04104468CB0F2
:10472C000D46FFF7CBFC637F022B1ED0237F628BE1
:10473C000133DBB22377AAB9022B13D8206802F01D
:10474C004FFCA8B125B9206802F028FD00280FDD28
:10475C002046FFF77DFE0028F5D1206802F078FD99
:10476C0001F0BDFB237F013B23770CB0BDE8F0814A
:10477C0001F0B1FB0546206802F032FC677F012F87
:10478C00064624D120B965612046FFF726FDE9E7EE
:10479C00E3684FF21862EB1A9342F5D84AF6C872E6
:1047AC00934203D82369EB1A9342DBD9636941F234
:1047BC007072EB1A9342D5D90023CDE901330093E3
:1047CC001A460621204600F04FF86561CAE7002F13
:1047DC00C8D16369EB1A40B141F270729342C1D9EE
:1047EC00206802F035FD6777BCE741F288329342CE
:1047FC00B8D9206802F02CFDD4F800C0DCF834E005
:10480C00BCF83880BEF1000F1BD0334642467146CF
:10481C00604602F067FB0128D7D163680593012538
:10482C001846258303F0D0F90022CDE90122059B1F
:10483C0000902A461D21204600F016F8236963617A
:10484C0090E7084B06930CF120070FCF07AE0FC66D
:10485C003B6833704246734606A9604602F022FC60
:10486C00D9E700BF5C8E0B002DE9F04F83B000AF91
:10487C00044600683D6B884616469946EB4602F0A6
:10488C00AFFB00287FD0B8F11D0F04D84C4B23FA96
:10489C0008F3DB0702D4637F012B74D146B9668B16
:1048AC0036B9238B01339BB2002B71D02383268B1B
:1048BC00A8F10C03082B16D8D4E90323934238BF74
:1048CC00134603F1420A01F006FBAAEB0000002894
:1048DC0060DB00212046FFF71FFF01F0FCFAAAEB7A
:1048EC0000000028F5DAB9F1000F5AD06B1D7A6B75
:1048FC00002ABA6B08BF002203EB020A0AF1070375
:10490C0023F00703ADEB030DBB6BC7F804D0EA181B
:10491C00C2F3072376BA43EA02238DF80080ADF880
:10492C000160ADF80330B9F1000F3CD0002D3AD046
:10493C002A4649460DF1050003F0F8F8681D7B6B1B
:10494C003BB1BB6B2BB11A467B68796B184403F0F7
:10495C00EDF8002555452AD2AAEB05027B682068A4
:10496C00B2F5806F28BF4FF48062591902F0EBF951
:10497C000646002001F0ADFABEB9206802F068FCD2
:10498C00667701F0ACFA0C37DD46BD46BDE8F08F1A
:10499C0001238BE7217F0029A5D12046FFF7BCFE20
:1049AC00A1E70523A3E70520C9E73544D2E703D0E7
:1049BC002046FFF712FCE6E701F08DFA2061E2E7F2
:1049CC004500002000B595B004AB002201934F23A5
:1049DC0000930292034B1121FFF746FF15B05DF8CF
:1049EC0004FB00BF607E0B0070B5ADF5856D002437
:1049FC0005920AAA05460E46079207A84FF4806254
:104A0C001149CDE90842FFF77EFB314607A8FFF7B5
:104A1C0097FBDDE90801079E059B0C4A091A3044F7
:104A2C0001F0BEFD431C089803440893013B00931E
:104A3C00CDE90144079B224614212846FFF714FFB9
:104A4C000DF5856D70BD00BF317E0B00347E0B0003
:104A5C00F8B53D4801F0C9FA08216020FFF794FB36
:104A6C00092105466020FFF78FFB402D074644D8EF
:104A7C000121082002F053FE0021072002F04FFE16
:104A8C000021062002F04BFE2F48304E01F0C6FAF2
:104A9C0008B1012333702C4801F0CAFA08B1022383
:104AAC003370294801F0CEFA50B1294B294A1978B4
:104ABC0081F0010099BB31781170032232701870AB
:104ACC00214C204600F0A4FE0321204600F0E7FC18
:104ADC00214A4FF00113C4E904233378012B20D170
:104AEC000A222946204601F0DEFF204601F0CFFFC6
:104AFC00BDE8F840144801F0F9B8812D4FF00001E1
:104B0C004FF0080003D802F00AFE0121B5E702F0CD
:104B1C0006FE0021072002F002FE0121B1E7127807
:104B2C00CCE7022B02D10A223946DBE7032BDFD17B
:104B3C002A460A480021FFF757FF08483A46012148
:104B4C00FFF752FFD4E700BF44E60320B4E603208E
:104B5C00B5E60320B6E6032005000800E8E50320CF
:104B6C002DE9F04194B002F05BFE01F0CDFD02F0B6
:104B7C0087FC4FF4165102F077FC02F051FE6021D5
:104B8C0001F0F4FD02F04CFE0368414D9B680021DE
:104B9C00984702F045FE036800219B68984702F095
:104BAC003FFE002101F0E9FD02F03AFE602101F028
:104BBC00DDFD02F035FE036803219B68984702F087
:104BCC002FFE036800219B68984702F029FE002104
:104BDC0001F0D3FDA223AC22A721009302A8EA2363
:104BEC0001F050FE03AC40F6B83001F072F90FCC76
:104BFC0009AF0FC723683B70264B6B6001F06BF954
:104C0C00A0F59C5008380DF1240CC5E9030068612F
:104C1C00BCE80F000FAE0FC62C683B6833700FAFAB
:104C2C0041F6907323870FCF4FF00008C4F83480FF
:104C3C0020340FC43368237044F24F66286802F0A6
:104C4C0007FB85F81D8001F046F904466B7F012BAC
:104C5C000CD001F040F9001BB04204D800212846CA
:104C6C00FFF75AFDF2E76B7F012BE7D10A4801F001
:104C7C0093F90121062002F041FD0121072002F0E9
:104C8C003DFD0121082014B0BDE8F04102F036BD15
:104C9C00E8E50320377E0B0044E6032010B50E4CEC
:104CAC00204602F01FFB04F11C0001F0A7FD0B4B8A
:104CBC000021C3E90041C3E90211C3E90411996160
:104CCC00998301206163218701F0CEFBBDE8104080
:104CDC000348072101F032B908E60320E8E5032078
:104CEC0044E603202DE9F04F85B01F46BDF938800E
:104CFC00BDF83C30A8EB0209A7EB010AB9F1000F93
:104D0C00B8BFC9F10009BAF1000FB8BFCAF1000A67
:104D1C00D14583460C46154604DD3A462C4647469B
:104D2C000D469046BC4205DD2A4645469046224635
:104D3C003C4617463E1BB2B20092A8EB050282EA33
:104D4C00E271A1EBE271C6F3C03202FA86F6454578
:104D5C00B4BF01224FF0FF32019176100292BC4297
:104D6C001CDCDBF800200393D145D2F81880C7BFB8
:104D7C00294622462A4621465846C047019A039B9B
:104D8C00B61AB1B236B2002E05DA029A1544009A60
:104D9C0056182DB236B2013424B2E0E705B0BDE8A6
:104DAC00F08F704710B404682469A4465DF8044B76
:104DBC00604730B40468BDF808500295A46BA44653
:104DCC0030BC604730B40468BDF808500295E46B01
:104DDC00A44630BC604770B4BDF90C50BDF81060EF
:104DEC000468CDE90356246CA44670BC60472DE9D9
:104DFC00F3411C460368BDF820805B6905461646E6
:104E0C00013C34440F4624B298472B68CDF80480FB
:104E1C0000949C6A28463B4632463946A0472B688C
:104E2C00DB6A284602B0BDE8F04118472DE9F34192
:104E3C001D460368BDF820805B69044617460E4684
:104E4C009847CDE9007822686B1E3344956A20465A
:104E5C001BB23A463146A8472368DB6A204602B0AB
:104E6C00BDE8F04118472DE9F3471E460368BDF92C
:104E7C0028905B69BDF82C800C4605461746984770
:104E8C002644B4422B680BDACDF80080D3F820A06E
:104E9C0021464B463A4628460134D04724B2F0E727
:104EAC00DB6A284602B0BDE8F047184713B5026824
:104EBC000191B0F90E100091146CB0F90C30002275
:104ECC001146A04702B010BD2DE9F7439942164692
:104EDC00BDF92870BDF82C90026880460D461C4622
:104EEC0013D1BE42C8BF3346CDF82890C4BF3E464E
:104EFC001F467B1C946B9B1B1BB2324629464046BB
:104F0C00A44603B0BDE8F0436047BE420AD19942C3
:104F1C00C2BF0B4625461C46631CCDF82890D46BAB
:104F2C005B1BE9E753699847CDE90079D8F8003065
:104F3C0040469F6A324623462946B847D8F8003087
:104F4C00DB6A404603B0BDE8F04318472DE9F34750
:104F5C001D460368BDF82C805B69BDF9289004469A
:104F6C000F46164698472368CDF80080D3F824A046
:104F7C0032462B4639462046D0472368CDF8008070
:104F8C0009F1FF323244D3F824A039462B4620468F
:104F9C0012B2D0472368CDF80080D3F820A0324657
:104FAC004B4639462046D0476B1ED9192368CDF89D
:104FBC0000801D6A20464B46324609B2A84723683A
:104FCC00DB6A204602B0BDE8F0471847704701F095
:104FDC000303B0F90A208376C907B0F9083059BF2A
:104FEC008381C2818281C3817047000030B54281C8
:104FFC00C281074A074D0181002481814FF0FF31A6
:10500C00C0E905124460056004610477046230BD98
:10501C0001010001BC830B002DE9F04F89B0CDE9F3
:10502C0002120268BDF948800493BDF94C305269F4
:10503C000593BDF850A00446904718F107024FF0B5
:10504C00000648BF08F10E024FEAE20B0196354606
:10505C00039B019ABDF904109A18059B8B4212B25E
:10506C0027DD049B33444FF0000906930FFA89F0B7
:10507C0080451FFA89F117DD4F0705BF069BC0104D
:10508C006D001D5C18BFEDB22B060AD5029B206883
:10509C0007921944836909B21F4620465346B84704
:1050AC00079A09F10109E1E7019B013301935E4481
:1050BC00CEE72368DB6A204609B0BDE8F04F1847FD
:1050CC002DE9F04F2DED028B91B01646026ABDF81A
:1050DC0074809DF878509DF87C4003911F46BDF874
:1050EC00703004938346002A40F0C580B0F90C3030
:1050FC008B4240F34C81B0F90E30B34240F3478100
:10510C00062313FB0513002B40F3418106EBC4036C
:10511C00002B40F33C81037F1BB9AF2F84BF0137B9
:10512C00FFB2DBF8003058465B69984705220992BC
:10513C0000220592984A07EB8703D3180C93B3B25D
:10514C000693059A0C9B9B5C0793ABB20B93BDF833
:10515C000C300893039B02FB05F919FA83F90FFA3B
:10516C0089F308EE103A08230A93039B02EB030A17
:10517C004FF000090FFA8AFA079ADBF80030D207D1
:10518C0052D5012D1FFA89F23ED1012C3CD19B69DD
:10519C0006991F46049B0A4412B251465846B8471A
:1051AC0009F101034FFA83F9079B5B0807930A9BEC
:1051BC00013B13F0FF030A93DED1059F01377BB24D
:1051CC000593099B013B13F0FF030993B9D1049B91
:1051DC0043450FD0012DDBF800303BD1012C39D1E8
:1051EC000899CDF8008005311C6A3246082309B2B3
:1051FC005846A047DBF80030DB6A584611B0BDECCE
:10520C00028BBDE8F04F1847069914FB02F20A44D2
:10521C00049901910094DB6918EE101A1F4612B222
:10522C002B465846B847BBE7049A4245B8D0012DE7
:10523C001FFA89F207D1012C05D19B6906991F46EB
:10524C000A444346A8E70699CDF8048014FB02F201
:10525C000A44DFE70B9ACDF8048002EB8201089A2E
:10526C00E4000A4411460094DC6932462B4609B22C
:10527C005846A047BEE7137A516812680B92FF1A82
:10528C00FFB201EBC70331F8372006929A780992E6
:10529C00DA780C92012D93F9052093F906A00A9265
:1052AC0001D8012C57D9BDF9283008930FFA8AF38D
:1052BC000793DBF8003058465B699847B3B24FF060
:1052CC0000080E931AFA86F3C14647460F930C9BBF
:1052DC009F428FD2079B0E9A3B4403FB0423002270
:1052EC0005920F9A1BB202EB070A08EE103A0FFA5E
:1052FC008AFA4346099A0599914241D25A1CD2B274
:10530C005B070D9207D1069B06990B9A01339BB252
:10531C0012F80190069319F0800F12D0012DDBF8D2
:10532C000030BDF80C101AD1012C18D10A9A9B69C7
:10533C001144059A11441E465246049B09B2584624
:10534C00B047059E0136F3B24FEA490905935FFA5F
:10535C0089F90D9BCEE70023CDE90733A9E7059822
:10536C00089A024402FB0511049ACDE90042DB695C
:10537C0018EE102A1E4609B22B465846B047E0E7F5
:10538C00099B013798445FFA88F8FFB29FE711B088
:10539C00BDEC028BBDE8F08FB17E0B00F0B5026A5C
:1053AC0085B004460B46002A34D10A2908D1438A19
:1053BC000282427E03EBC2036382012005B0F0BD82
:1053CC000D29FAD0E17E007E657E71B1B4F91060D2
:1053DC00062111FB0061B4F90C60B142C1BFB4F9F4
:1053EC001210228201EBC5026282E28A0192A28A29
:1053FC000092CDE90205B4F91220B4F91010204640
:10540C00FFF75EFE237E228A03EB430302EB43038A
:10541C002382D2E70A2907D100230382417E927AA4
:10542C00438A01FB0233C7E70D29C6D0157AA9427E
:10543C00C3D3517A9942C0D351685D1BEDB201EBD5
:10544C00C505A87828B3E97819B3E17E267E677E76
:10545C0091B195F905100844B4F9101006FB001130
:10546C00B4F90C00814207DD00202082B4F912103F
:10547C00927A02FB07126282E28A0192A28A00925D
:10548C00CDE90267B4F91220B4F910102046FFF7E9
:10549C0017FE2979227E238A01FB0233B8E7012902
:1054AC0038BF0121017641767047704710B5102145
:1054BC000446FEF7ECFD204610BD0EB403B503AB5D
:1054CC00002153F8042B019301F00BFB02B05DF8A3
:1054DC0004EB03B07047000073B50446084622790C
:1054EC00A36832B1A3B90B4902B0BDE8704001F01A
:1054FC00C7BA094A267B094D0949647B012E18BF9E
:10550C002946CDE900140749FFF7D7FF02B070BD5B
:10551C00054AEFE71D840B0014840B0019840B0063
:10552C0015840B0033840B000C840B0010B5044B5A
:10553C0003600446C06A08B101F02AF8204610BD89
:10554C000C890B0010B50446FFF7F0FF20465021E4
:10555C00FEF79DFD204610BD002910B54BDBB0F9C0
:10556C000C408C4247DD002A45DBB0F90E409442DA
:10557C0041DD847E022C1FD0032C26D0012C04D1BB
:10558C000489D24314440A4621B2012B23D0022BA6
:10559C0032D083BB002A13460489C06AB8BFD31D1E
:1055AC00DB1013FB041102F0070201239340425C51
:1055BC0022EA030242541EE00489013C611A448928
:1055CC00D243224409B212B2DFE74489013C641A87
:1055DC00114622B2D9E7002A04891346B8BFD31D5D
:1055EC00DB1013FB0411C36A02F007000122824096
:1055FC00585C02435A5410BD002A13460489C06AF1
:10560C00B8BFD31DDB1013FB041102F007020123FA
:10561C0003FA02F2435C5A40CCE7000070B5044632
:10562C001D460026FFF7E2FC114B2360666215B99C
:10563C0002F0F6F80546FF2384F8333084F8363050
:10564C009DF9103084F837300A4BA363012384F89A
:10565C003C30059BA3644FF6FF72069BA286C4E9FF
:10566C000A562664A4F84460E364204670BD00BF6B
:10567C000C890B0058840B00F8B50446806A0D4663
:10568C0090B194F9301001F075F8A06A036800210C
:10569C009B689847A06A036829469B689847A06A4C
:1056AC00BDE8F84001F06DB894F93530014698B278
:1056BC0002F035F8606A20B12946BDE8F84001F0E7
:1056CC00F3BA0826802794F9330005EA070180B263
:1056DC0002F025F894F93400012180B202F01FF891
:1056EC0094F93400002180B202F019F8013E4FEA1F
:1056FC005707E8D1F8BD38B50446806A0D4680B12D
:10570C00A16C00F0FDFF002D204614BFA721A6219F
:10571C00FFF7B2FFA06A88B1E16CBDE8384000F039
:10572C00EFBF606A18B104F1380101F04FFA94F937
:10573C003600002180B201F0F2FFE4E794F9360064
:10574C00012180B201F0EBFF606A18B1BDE838406E
:10575C0001F022BA38BD2DE9F8430446806A0D46A3
:10576C008F1840B394F9301001F004F8A06A036864
:10577C0000219B6898470126AF42A06A17D01F2EC4
:10578C000CD900F0FEFF94F93010A06A00F0F2FF83
:10579C00A06A036800219B6898470126A06A15F847
:1057AC00011B036801369B689847F6B2E4E7BDE835
:1057BC00F84300F0E6BF94F93530014698B201F099
:1057CC00AEFFBD4222D0606A15F8019B18B1494664
:1057DC0001F06AFAF5E708264FF0800894F93300D7
:1057EC0009EA080180B201F09AFF94F93400012112
:1057FC0080B201F094FF94F93400002180B201F0E2
:10580C008EFF013E4FEA5808E8D1DAE7BDE8F8838D
:10581C00B0F90A30DA1D48BF03F10E02B0F90830B6
:10582C00C06AD2105A43002102F08EB92DE9FF4113
:10583C001E46C36A9DF8288004460F461546C3B120
:10584C002046FFF7E5FFB4F90A00B4F90810202848
:10585C0021DC202301222038CDE9013200EBD0706D
:10586C0073237339009301EBD171894B40F34F02D1
:10587C0021E0B0F90A30D81D48BF03F10E00B4F98D
:10588C000830C010584300F07BFEE0620028D7D1EE
:10589C0004B0BDE8F0814038C0F3C03202FA80F2A7
:1058AC0040230120CDE90130522352390093794B2A
:1058BC0001EBD1715210204641F34F01FFF7ACFBC5
:1058CC00A06A84F83170002878D0002D74D1B4F916
:1058DC000A30202B0CBF3C253D2584F83050B8F104
:1058EC00000F01D000F010FFFEB194F93700002832
:1058FC001BDB012180B201F001FF94F9370001217B
:10590C0080B201F00CFF012000F072FE94F9370018
:10591C00002180B201F003FF0A2000F069FE94F927
:10592C003700012180B201F0FAFEA06A002874D081
:10593C00A16C00F0E5FE042257492046FFF70BFF4F
:10594C0061890139C9B22046FFF796FE53490422FA
:10595C002046FFF700FF94F93130012B0CBF1021CA
:10596C0014212046FFF788FE04224D492046FFF7FC
:10597C00F2FEA3684B4A93425CD14B490422204669
:10598C00FFF7E9FED9212046FFF776FE94F9313076
:10599C00012B0CBF2221F1212046FFF76DFE204682
:1059AC0042490622FFF7D7FEA06A002863D0E16CBB
:1059BC0000F0A6FE01206BE76DB28EE794F935007E
:1059CC00012180B201F09AFE94F93600012180B2D7
:1059DC0001F094FE94F93600012180B201F09FFE93
:1059EC00656A3DB1B8F1000F3FF47EAF284601F077
:1059FC00BFF879E794F93300012180B201F07EFE03
:105A0C0094F93400012180B201F078FE94F934004D
:105A1C00294680B201F083FE66E7606A18B104F192
:105A2C00380101F0D3F894F93600002180B201F06E
:105A3C0076FE80E71E4A93420ED11E490322204671
:105A4C00FFF789FE94F93130012B0CBF9F21CF2138
:105A5C002046FFF711FE95E7174A934292D117495A
:105A6C0003222046FFF777FE94F93130012B0CBF4F
:105A7C001021AF21ECE794F93600012180B201F03E
:105A8C004EFE606A002895D001F086F892E700BFC0
:105A9C0024870B0064840B006C890B0070890B004D
:105AAC0074890B00800020007E890B0078890B0024
:105ABC008000400082890B006000100085890B007B
:105ACC0070B5002ABDF810503DDBB0F90A40944285
:105ADC0039DD0029BEBF5B181BB20021B0F90840AC
:105AEC00CE18A642C4BF631A1BB2002B2BDDC06AB2
:105AFC00D61014FB0611014402F00700012282406B
:105B0C00012DD2B216D0022D0BD0E5B9D243D2B2B0
:105B1C000B44994217D011F8010B104001F8010CFD
:105B2C00F7E70B4499420ED011F8010B504001F8E5
:105B3C00010CF7E70B44994205D011F8010B104307
:105B4C0001F8010CF7E770BDF0B50029BDF8145051
:105B5C0076DBB0F90860B14272DA002ABEBF9B183E
:105B6C001BB20022B0F90A40D718A742C4BFA31A2F
:105B7C001BB2002B64DDC2F3C404C76A16FB041607
:105B8C0012F00702DBB207EB060423D0C2F10802C5
:105B9C00D2B22D4993423CBF4FF0FF0CA2EB030E47
:105BAC00895C3CBF4CFA0EFC0CEA0101012D07D0BC
:105BBC00022D2ED04DB917F806C02CEA010103E0D6
:105BCC0017F806C041EA0C01B955934238D3B0F925
:105BDC0008100C449A1AD2B2072A0ED9022D1DD1E4
:105BEC0013462178C9432170083BB0F90810DBB289
:105BFC00072B0C44F5D802F007020AB3134B012D06
:105C0C009B5C1AD0022D1CD0D5B9227822EA030352
:105C1C0015E017F806C081EA0C01D5E7291E18BF5C
:105C2C0001214942C9B213462170083BB0F9086002
:105C3C00DBB2072B3444F7D8DDE72278134323700B
:105C4C00F0BD22785340FAE75C890B0064890B00A5
:105C5C0070B41446827EBDF80C60022A0DD0032A63
:105C6C0018D0012A11D10289E443144424B20396BA
:105C7C000A46214670BCFFF767BF42890589E44399
:105C8C0019441444691A24B209B20396224670BC12
:105C9C00FFF716BF45891944691A09B2E7E730B412
:105CAC001446827EBDF80850022A0DD0032A18D063
:105CBC00012A11D1E2180489A41A24B202950A46C9
:105CCC00214630BCFFF7FCBE0289C9431144E218DF
:105CDC004489A41A09B224B20295224630BCFFF7BB
:105CEC0033BF4289C943114409B2E7E72DE9F843B0
:105CFC000446806A002842D0A16C00F001FD47499F
:105D0C0005222046FFF727FD218901392046C9B21B
:105D1C00FFF7B2FCB4F90A30DE1D48BF03F10E06E2
:105D2C00D4E90A052389F61013FB06F615FA86F654
:105D3C0000283AD094F9301000F01CFDA06A0368DA
:105D4C0040219B6898470127B542A06A24D01F2F99
:105D5C000CD900F016FD94F93010A06A00F00AFD81
:105D6C00A06A036840219B6898470127A06A15F830
:105D7C00011B036801379B689847FFB2E4E7606A30
:105D8C0018B104F1380100F021FF94F9360000211C
:105D9C0080B201F0C4FCB2E700F0F3FCA06A78B367
:105DAC00E16CBDE8F84300F0ABBC94F9350001217F
:105DBC0080B201F0B4FCAE42F0D0606A15F8019BE1
:105DCC0018B1494600F070FFF5E708274FF080083E
:105DDC0094F9330009EA080180B201F0A0FC94F9AF
:105DEC003400012180B201F09AFC94F934000021B6
:105DFC0080B201F094FC013F4FEA5808E8D1DAE791
:105E0C0094F93600012180B201F089FC606A18B166
:105E1C00BDE8F84300F0C0BEBDE8F88388890B00EC
:105E2C0000210A22C0E900127047002310B5044675
:105E3C00C171837188B201F08BFC08B10323A3718B
:105E4C0000F032F9206010BD38B50C4605461146FD
:105E5C00A0B201F053FC21462846BDE83840FFF7BC
:105E6C00E4BF38B50446C07901F072FCA57900385E
:105E7C0025F0080318BF0120C5F340058542A37126
:105E8C000AD000F011F9A379206083F00203A3710A
:105E9C00A079C0F3C00038BD00F006F92368C01A21
:105EAC00A3889842F4D3A37903F00103AB42EFD05B
:105EBC0000F0FAF8A379206083F0010343F00803A3
:105ECC00E5E7807900F00900A0F108035842584139
:105EDC00704700F08DBB00F0E7B870477047704713
:105EEC0003065ABF024B53F820000020704700BF36
:105EFC0090890B0003065ABF024B53F82000002078
:105F0C00704700BF908B0B0010B5064B0360044626
:105F1C00006D08B100F0A8F82046FFF707FB2046FB
:105F2C0010BD00BF988D0B0010B50446FFF7ECFFB9
:105F3C0020467021FEF7ABF8204610BD30B585B079
:105F4C0004460D4601F06CFC104A1149CDE90121C3
:105F5C004FF0FF3280210346009220462022FFF7AB
:105F6C005DFB0C4B23600023C4E9143504F158008D
:105F7C00FFF756FF04F16000FFF752FF04F16800D1
:105F8C00FFF74EFF204605B030BD00BF801A06005B
:105F9C00A0860100988D0B0013B50446503000F01C
:105FAC005BF8636DD90705D50222042104F1580072
:105FBC00FFF74AFF636D9A0705D50022032104F110
:105FCC006000FFF741FF636D5B0705D502221146A8
:105FDC0004F16800FFF738FF012300933C220221F3
:105FEC002046FFF723FC02B010BD10B5436DD90756
:105FFC00044602D55830FFF734FF636D9A0703D57A
:10600C0004F16000FFF72DFF636D5B0705D504F10C
:10601C006800BDE81040FFF724BF10BD436D024679
:10602C0013F0010003D002F15800FFF74ABF70478C
:10603C00436D024613F0020003D002F16000FFF73B
:10604C0040BF7047436D024613F0040003D002F1C9
:10605C006800FFF736BF704708B5024B1B681B6B17
:10606C00019308BD4802030008B5024B1B685B6B2B
:10607C00019308BD4802030008B5024B1B685B6C1A
:10608C00019308BD4802030008B5024B1B685B680E
:10609C00019308BD1802030008B5024B1B68DB68AE
:1060AC00019308BD1802030008B5024B1B685B691D
:1060BC00019308BD1802030008B5024B1B685B680E
:1060CC00019308BD2C02030008B5024B1B689B68AA
:1060DC00019308BD2C02030008B5024B1B68DB685A
:1060EC00019308BD2C02030008B5024B1B681B6909
:1060FC00019308BD2C02030008B5024B1B685B69B9
:10610C00019308BD2C02030008B5024B1B689B6A67
:10611C00019308BD2C02030008B5024B1B681B6BD6
:10612C00019308BD2C02030008B5024B1B689B6F42
:10613C00019308BD2C02030008B5024B1B681B68B9
:10614C00019308BD2802030008B5024B1B68DB68ED
:10615C00019308BD2802030008B5024B1B689B691C
:10616C00019308BD2802030008B5024B1B68DB69CC
:10617C00019308BD2802030008B5024B1B681B6A7B
:10618C00019308BD2802030008B5024B1B685B6A2B
:10619C00019308BD2802030008B5024B1B689B6ADB
:1061AC00019308BD2802030008B5024B1B68DB6A8B
:1061BC00019308BD2802030008B5024B1B681B6B3A
:1061CC00019308BD2802030008B5024B1B685B6BEA
:1061DC00019308BD2802030008B5024B1B681B6C19
:1061EC00019308BD2802030008B5024B1B681B6D08
:1061FC00019308BD2802030008B5024B1B685B69BC
:10620C00019308BD6C02030008B5024B1B685B6967
:10621C00019308BD6402030008B5024B1B681B6A9E
:10622C00019308BD6402030008B5024B1B689B6A0E
:10623C00019308BD6402030008B5024B1B689B6800
:10624C00019308BD6802030008B5024B1B68DB68AC
:10625C00019308BD6802030008B5024B1B689B69DB
:10626C00019308BD3802030008B5024B1B68DB69BB
:10627C00019308BD3802030008B5024B1B681B6A6A
:10628C00019308BD3802030008B5024B1B689B6ADA
:10629C00019308BD3802030008B5024B1B681B6B49
:1062AC00019308BD3802030008B5024B1B689B6BB9
:1062BC00019308BD3802030008B5024B1B681B682C
:1062CC00019308BD3002030008B5024B1B685B69E3
:1062DC00019308BD3002030008B5024B1B68DB6953
:1062EC00019308BD3002030008B5024B1B681B6A02
:1062FC00019308BD3002030008B5024B1B685B6AB2
:10630C00019308BD3002030008B5024B1B68DB6B20
:10631C00019308BD3002030008B5024B1B681B6CCF
:10632C00019308BD3002030008B5024B1B685B6C7F
:10633C00019308BD3002030008B5024B1B68DB68F3
:10634C00019308BD3C02030008B5024B1B681B6996
:10635C00019308BD3C02030008B5024B1B685B6946
:10636C00019308BD3C02030008B5024B1B689B69F6
:10637C00019308BD3C02030008B5024B1B68DB69A6
:10638C00019308BD3C02030008B5024B1B681B6A55
:10639C00019308BD3C02030008B5024B1B689B6AC5
:1063AC00019308BD3C02030008B5024B1B681B6C33
:1063BC00019308BD3C02030008B5024B1B681B6827
:1063CC00019308BD4C02030008B5024B1B685B68C7
:1063DC00019308BD4C02030008B5024B1B681B69F6
:1063EC00019308BD4C02030008B5024B1B685B69A6
:1063FC00019308BD4C02030008B5024B1B689B6956
:10640C00019308BD4C02030008B5024B1B68DB6905
:10641C00019308BD4C02030008B5024B1B681B6AB4
:10642C00019308BD4C02030008B5024B1B685B6B63
:10643C00019308BD6002030008B5024B1B681B6D7D
:10644C00019308BD6002030008B5024B1B685B6832
:10645C00019308BD2002030008B5024B1B685B6961
:10646C00019308BD2002030008B5024B1B68DB6AD0
:10647C00019308BD2002030008B5034B1B68D3F839
:10648C008830019308BD00002002030008B5034BBF
:10649C001B68D3F89430019308BD00002002030060
:1064AC0008B5024B1B689B68019308BD44020300AE
:1064BC0008B5024B1B68DB6B019308BD440203005B
:1064CC0008B5024B1B685B68019308BD40020300D2
:1064DC0008B5024B1B689B68019308BD4002030082
:1064EC0008B5024B1B68DB68019308BD4002030032
:1064FC0008B5024B1B681B69019308BD40020300E1
:10650C0008B5024B1B685B69019308BD4002030090
:10651C0008B5024B1B689B69019308BD4002030040
:10652C0008B5024B1B68DB69019308BD40020300F0
:10653C0008B5024B1B681B6A019308BD400203009F
:10654C0008B5024B1B681B6B019308BD400203008E
:10655C0008B5024B1B685B6B019308BD400203003E
:10656C0008B5024B1B681B6C019308BD400203006D
:10657C0008B5024B1B685B6C019308BD400203001D
:10658C0008B5024B1B681B68019308BD1C02030075
:10659C0008B5024B1B685B68019308BD1C02030025
:1065AC0008B5024B1B68DB69019308BD1C02030094
:1065BC0008B5024B1B685B6A019308BD1C02030003
:1065CC0008B5024B1B68DB6B019308BD1C02030072
:1065DC0008B5024B1B681B6C019308BD1C02030021
:1065EC0008B5024B1B685B6C019308BD1C020300D1
:1065FC000021FFF731BF0000024800230360FFF7C2
:10660C003BBD00BFC4E60320002240681146FFF7E3
:10661C008FBF002240681146FFF79ABF40680022E6
:10662C00FFF78EBF4068002281F00101FFF778BFB1
:10663C00002340681A461946FFF76ABF00234068DA
:10664C001A461946FFF75CBF002240681146FFF757
:10665C004FBF002240681146FFF73ABF4068002246
:10666C000221FFF73DBF002340681A46FFF728BF01
:10667C00024B03225A60024A1A607047C8E6032094
:10668C00F88D0B007047F8B5064615460C468F186A
:10669C00BC4206D0336814F8011B9B6830469847FF
:1066AC00F6E72846F8BD007C0022FFF765BD007CAC
:1066BC000021FFF769BD007C0021FFF76DBD007C58
:1066CC000021FFF771BD007C0021FFF775BD10B5EF
:1066DC0014210446FDF7DBFC204610BD10B54FF429
:1066EC007A73044608460021C4E90113034B236066
:1066FC0020741146FFF770FD204610BD348E0B0040
:10670C00007C0022FFF718BD0023007C1A461946B6
:10671C00FFF71ABD7FB500221423CDE90122ADF895
:10672C0004300B788DF808304B680393CB680493D6
:10673C00007C0B7A059301A9FFF756FD07B05DF8B5
:10674C0004FB1FB5003B8DF800104FF06401039162
:10675C0018BF0123694601928DF80830FFF7DAFF64
:10676C0005B05DF804FB0123FFF7EBBF007C0022B2
:10677C00FFF7F2BCC9B2FFF7F9BF007C0022FFF7AC
:10678C00F3BC0121FFF7F9BF704710B5182104467F
:10679C00FDF77DFC204610BDF0B5037D062B8DB0BA
:1067AC000E4600F104074FF0000412D000F108056A
:1067BC0015F8011D0A22304600F075F9AF42044469
:1067CC0019D0002CF4D02E21304600F05DF9044491
:1067DC00EEE72F236A4639460A208DF80040FFF772
:1067EC0013FD684601F0F0F933680246DB68694630
:1067FC0030469847044620460DB0F0BD10B5054B09
:10680C000446112240F8043B002101F09DF920467A
:10681C0010BD00BF5C8E0B000346074A10B543F851
:10682C00042B01F1100251F8044B43F8044B914234
:10683C00F9D10A781A7010BD5C8E0B00037D042B05
:10684C0004D14068003818BF01207047062B07D1CF
:10685C0043683BB983682BB9C3681BB90069F1E77E
:10686C00002070470120704710B59DF8084044EA9D
:10687C00032343EA024242EA0161042341600375A7
:10688C0010BD000013B5044C04609DF8104000943A
:10689C00FFF7EAFF02B010BD5C8E0B0007B5064B8C
:1068AC000360CB7800938B784A780978FFF7DCFF8C
:1068BC0003B05DF804FB00BF5C8E0B00014B024A79
:1068CC001A607047D0E60320688E0B0000234068E6
:1068DC001A46FFF7F5BD406800220221FFF700BE03
:1068EC00002240681146FFF7F3BD002240681146B4
:1068FC00FFF7FEBD002340681A461946FFF700BE9D
:10690C00002340681A461946FFF702BE4068002172
:10691C00FFF726BE40680021FFF72ABE4068002220
:10692C0081F00101FFF7FCBD40680022FFF708BEB3
:10693C00002240681146FFF70BBE0022406811464A
:10694C00FFF7F6BD2DE9F04395B014460D4607460A
:10695C00FFF754FF00211C220DA8009101F0F4F860
:10696C0040230C9320466B460CAA0021FFF76CFCCD
:10697C00044600284BD1024601216868FFF7B8FD98
:10698C000221804622466868FFF7B2FD009E8146D0
:10699C002146002E3BD0002939D17368022B03D03D
:1069AC000A2B11D0F669F4E7B8F1000FFAD071692F
:1069BC0006A8043107ADFFF771FF0FCD3C1D0FC4C6
:1069CC002B6823704146EDE7B9F1000FEAD07469EA
:1069DC00102201A801F0B8F806238DF8143001AD8F
:1069EC0004F108031834186859682A4603C208339E
:1069FC00A3421546F7D101A906A807ADFFF70CFF76
:106A0C000FCD3C1D0FC42B6823704946CAE7009874
:106A1C00FFF712FC384615B0BDE8F083024B034A71
:106A2C001A6000225A607047D4E60320748E0B0063
:106A3C00F8B506460D468F180024BD420CD03368BD
:106A4C0015F8011B9B6830469847031E01DB1C445C
:106A5C00F3E7002C08BF1C462046F8BD13B50446CE
:106A6C00084659B1019101F0AFF823680199DB6830
:106A7C000246204602B0BDE81040184702B010BDD7
:106A8C0008B5FFF7EBFF08BD03689B68184738B5DE
:106A9C000D210546FFF7F8FF0A2104462846FFF7AB
:106AAC00F3FF204438BD30B58BB00023012A8DF89C
:106ABC00243098BF0A2209AC0D46B1FBF2F101FB60
:106ACC00125303F0FF03092B94BF30333733DBB27F
:106ADC00AA4204F8013DEFD92146FFF7BFFF0BB0E6
:106AEC0030BD2DE9F04186B000AF05460E46381D8D
:106AFC00142114463B60FFF75BFD13280ED8391D9B
:106B0C002846FFF7ABFF04461EB12846FFF7BFFF30
:106B1C00044420461837BD46BDE8F08100F1080357
:106B2C0023F00703E846ADEB030D2246411C3B68FE
:106B3C006846FFF73DFD69462846FFF78FFF044680
:106B4C00C546E1E7014B00229A607047DCE6032062
:106B5C000021FFF7E9BB0021FFF7DEBB10B50446AF
:106B6C0008462170FFF7B8FB00236360204610BD78
:106B7C0013B504460078FFF7EEFF58B92078019062
:106B8C004FF6FF71FFF798FB019802B0BDE810407B
:106B9C00FFF7DEBF02B010BD0078FFF7D9BF0000D1
:106BAC00400830B51860002418688842E5B206D950
:106BBC000134082C02D040081860F5E70725024B79
:106BCC005B5D137030BD00BFA88E0B002DE9F04348
:106BDC0006468FB000780C46FFF7BDFF00281BDB84
:106BEC0035781422002109A800F0AEFF0B230022F7
:106BFC0009A92846ADF82430FFF77EFB9DF82D300F
:106C0C0013B19DF82C5055B10027B946B846012553
:106C1C0023795DB1C3B100200FB0BDE8F083DDF87E
:106C2C0030809DF834909DF83570F1E7002B35D10C
:106C3C00A368434508D18DF820908DF82170BDF8DC
:106C4C002020A3899A42E6D00023A1688DF80F304A
:106C5C000A9804AB0DF10F02FFF7A2FF217985B959
:106C6C0089B9A36843450ED38DF820908DF8217017
:106C7C00BDF82020A3899A4205D1049B434502D13B
:106C8C00C9E70029F9D100230193637B00939DF898
:106C9C000F20237B3078FFF737FBBCE7CDE900559D
:106CAC002B462A460121F5E708B50078FFF70CFBC7
:106CBC00C0B208BD10B50446FFF7F6F9E0602368D2
:106CCC0020465B699847002808DAFFF7EDF9E3687E
:106CDC00C01AA3689842F2D34FF0FF3010BD2DE9D3
:106CEC00F04107460C468E180D46B542A5EB04083C
:106CFC0007D03846FFF7DEFF031E02DB05F8013B29
:106D0C00F3E74046BDE8F081054B02221A60054BC3
:106D1C00054A9A600020C3E90000FFF795BB00BF4D
:106D2C00F8E60320ECE603200000FFFF13B5036830
:106D3C008DF80710DC6B01224FF0FF330DF10701CA
:106D4C00A04702B010BD10B40368DC6B4FF0FF33EA
:106D5C00A4465DF8044B604713B5134602688DF8E2
:106D6C000710D46B0DF107010122A04702B010BD32
:106D7C0010B54369B3F88620B3F884309A420446C0
:106D8C0008D06369B3F88420511CA3F88410134411
:106D9C00187910BD03681B6998470028F1D14FF092
:106DAC00FF30F6E7704743691868C043C00F70475F
:106DBC0070470000064B994210B500F10C0405D049
:106DCC00084600F093FD002808BF0024204610BDA3
:106DDC00E88D0B0010B5AC210446FDF758F92046A0
:106DEC0010BDAC21FDF753B92DE9F0414FF000086F
:106DFC0086B01C46C0F8048005460E461746414630
:106E0C00102202A800F0A0FE631C09D04FF47A7384
:106E1C00B4FBF3F203FB1244CDE902285C43049467
:106E2C00686910230093006802AB41F2050240F63A
:106E3C00FF71FFF711FA002807DAFFF7C1FB0368AF
:106E4C006B60002006B0BDE8F08168690023006823
:106E5C003A463146FFF720FA031EEEDB1846F1E7FF
:106E6C0038B584690A4B036005467CB16368013B05
:106E7C0063605BB9236820469B689847A368013B15
:106E8C00A3601BB923682046DB689847284638BDA9
:106E9C00EC8E0B0010B50446FFF7E2FF20461C21D8
:106EAC00FDF7F5F8204610BD30B587B0044601ADAE
:106EBC006846FFF7F3FC0FCD04340FC42B68237026
:106ECC0007B030BD70B54D69054B04468C3544F8A0
:106EDC00043B06460FCD0FC42B682370304670BDA3
:106EEC005C8E0B002DE9F0439846036893B00D4679
:106EFC000024DB6A06461746984728466B4622460E
:106F0C0021460094FFF7A0F90546002863D1009BA9
:106F1C00002B4BD05B69002B48D006A8FFF76EFC0A
:106F2C00009B5C696378022B04D1211D06A8FFF736
:106F3C00BBFF26E00A2B24D11122294601A800F020
:106F4C0003FEA368002B38D004F108030DF1040CE8
:106F5C00183418685968624603C20833A342944631
:106F6C00F7D1062301A90CA88DF81430FFF754FCB7
:106F7C000DF1340CBCE80F0007AC0FC4DCF800308A
:106F8C00237006A8FFF75AFC80B1336807ADD3F81D
:106F9C002090124B0C930FCD0DAC0FC42B682370AB
:106FAC003A4643460CA93046C84705460098FFF7B9
:106FBC0043F9284613B0BDE8F083E368002BC3D136
:106FCC004FF6FF70D4F81090FFF726F98145BBD12E
:106FDC0004F11401AAE72546E8E700BF5C8E0B001C
:106FEC0038B543691A68002A054610DAB3F88620CA
:106FFC00B3F884309A420AD103681B699847044657
:10700C0028B92B682846DB6A9847204638BD0120F2
:10701C00FCE710B54369B3F88620B3F884309A4284
:10702C00044605D06369B3F884201344187910BD65
:10703C0003681B6998470028F4D14FF0FF30F6E73E
:10704C00F8B543691746B3F88620B3F884309A42F2
:10705C0005460E4616D06969B1F88430B1F8864001
:10706C00E41ABC4228BF3C4604332246194430463D
:10707C0000F05CFD6A69B2F884302344A2F88430D5
:10708C002046F8BD03681B6998470028E3D14FF0F0
:10709C00FF34F5E742690023A2F884304269A2F874
:1070AC00863070472DE9F0411F4603680C46DB6AB9
:1070BC008AB0054616469847237DD5F81480042BD4
:1070CC000CBF02200A2006220121FFF7EDF8C8F8B8
:1070DC0000006B691B68002B08DA2B682846DB6AFA
:1070EC000024984720460AB0BDE8F0812846FFF7F7
:1070FC00D1FFB7B1002303A9F8B20393ADF8103058
:10710C00FFF77AF80028E8D1686906230093006835
:10711C0003AB41F20B0240F6FF71FFF79DF800281C
:10712C00DBD11C22002103A800F00EFD237D042BD3
:10713C001DD14FF407733046ADF80C30FFF774F8DF
:10714C00ADF80E006068FFF767F804906B691C22BD
:10715C00186803A9FFF790F80028BED104340FCCAF
:10716C006D698C350FC523682B700124BAE740F686
:10717C001C233046ADF80C30FFF756F805AEADF8D1
:10718C000E00231D04F1140718685968324603C217
:10719C000833BB421646F7D1D8E7000030B5426938
:1071AC00B2F886308BB004462BB1B2F884209A42E8
:1071BC0001D1FFF76FFF61690868002818DBB1F88F
:1071CC0086507F2D14D804310823C5F18002294440
:1071DC00FFF75AF8002813DD6369B3F886200AB963
:1071EC00A3F884206369B3F886201044A3F88600C2
:1071FC006369B3F88600B3F88430C01A0BB030BDA5
:10720C00FFF7DEF903680B2BF2D0FFF7D9F903680F
:10721C000B2BEDD020230025CDE90235FFF7D0F95B
:10722C0003680193084B0949009302AA2B463220AC
:10723C00FFF702F963691868FFF716F863694FF0F6
:10724C00FF321A60D4E700BFB78E0B00B08E0B0074
:10725C0010B5436904461868002801DBFFF704F8F1
:10726C0063694FF0FF321A606069112200218C3083
:10727C0000F06AFC2046BDE81040FFF70BBF10B5CC
:10728C00002304460160C0F884308830FFF7B6FA5A
:10729C00204610BD73B500234FF47A72C0E9013259
:1072AC000E4A0361026043610446AC200191FCF775
:1072BC00EAFE051E05F10C0608D00123C5E90133D1
:1072CC00074B01992B603046FFF7D9FF2046C4E9E4
:1072DC000565FFF7DFFE02B070BD00BFEC8E0B0042
:1072EC00D08E0B0010B54FF0FF310446FFF7D2FFE4
:1072FC00204610BD10B504460068002801DBFEF7DF
:10730C00B3FF204610BD0C30FFF7F4BF024B1A68D8
:10731C00024B1A60704700BF7CE50320FCE603209B
:10732C0070474174704708B5007CFFF735F820EAC8
:10733C00E07008BD08B5007CFFF706F820EAE070A5
:10734C0008BD08B5007CFFF70FF840EAE07008BDF7
:10735C0008B5007CFFF700F840EAE07008BD007C3F
:10736C00FFF70AB837B5457C04462DB1207C03B035
:10737C00BDE83040FEF7E0BF007C0191FFF70CF850
:10738C0000280199F2DC284603B030BD10B5142159
:10739C000446FCF77CFE204610BD000010B54FF4EF
:1073AC007A730446084611460022C4E90123044BB3
:1073BC002360012320746374FEF7F6FF204610BD92
:1073CC00548F0B00417470477047704708B500210B
:1073DC00007CFFF711F840EAE07008BD08B5012108
:1073EC00007CFFF709F840EAE07008BD08B5007CA6
:1073FC00FEF7FAFF20EAE07008BD08B5007CFEF746
:10740C00EBFF20EAE07008BD13B50446007C019147
:10741C00FEF7EAFF0028019901DC607C20B1207C9A
:10742C00FEF7F2FF20EAE07002B010BD007CFEF720
:10743C00F3BF10B514210446FCF729FE204610BDFD
:10744C0010B54FF47A73044608460021C4E90113C1
:10745C00044B23600123207463741146FEF7ACFFC8
:10746C00204610BD848F0B00007C0022FEF7ACBFC1
:10747C0010B514220446002100F066FB204610BD16
:10748C0010B50F4C88B003A8FFF7F2FF2178BFF3BB
:10749C005B8F11F001010FD120460191FCF706FE24
:1074AC00019948B103AA0748FFF7CAFF2046FCF729
:1074BC0002FE054800F02CFB024808B010BD00BFCE
:1074CC0000E7032004E70320D5730B00002240687B
:1074DC001146FFF70DB8002240681146FFF728B897
:1074EC00002240681146FFF733B840680022FFF7CE
:1074FC0027B84068002281F00101FFF711B8002382
:10750C0040681A461946FFF703B8002340681A462C
:10751C001946FEF7F5BF002240681146FEF7D8BFAA
:10752C00406800220221FEF7DBBF002340681A46A8
:10753C00FEF7C6BF024B04225A60024A1A6070471B
:10754C0018E70320B48F0B00014B1860704700BF85
:10755C0080E5032008B50B4B43B1FFF791FF03689F
:10756C001B699847002801DDAFF30080064B43B13F
:10757C0000F096F903681B699847002801DDAFF30A
:10758C00008008BD000000000000000008B5FFF7F7
:10759C00E1FFFEF789FD014B186008BD28E70320C9
:1075AC000548064A064908B5121A00F0BFFA054B01
:1075BC00054A1A6008BD00BF00F4032004F4032040
:1075CC00A4920B0000F403201E1C279A07B500237D
:1075DC0000931A466FF07701FEF758FF03B05DF881
:1075EC0004FB000007B543880A2B08D0502B0BD1A5
:1075FC00094B1B684BB103B05DF804EB1847FFF760
:10760C00E5FF03B05DF804FB002300931A466FF00E
:10761C007701FEF73BFFF4E724E7032010B512488F
:10762C000021FEF7DDFF114B1A68114B9A42114BEA
:10763C000CBF012200221A7001D0FFF7B1FFFEF738
:10764C0023FD044600F088FA0B4B13B12046AFF330
:10765C00008000210848FEF72BFFBDE810400748CA
:10766C000021FEF709BF00BF55750B0000F4032085
:10767C001E1C279A20E7032000000000F1750B0068
:10768C00232813B502D9002002B010BDA0F10B03C2
:10769C00022B1AD8174C2178BFF35B8F11F0010124
:1076AC000BD120460191FCF701FD019928B112483C
:1076BC00FFF754FA2046FCF7FEFC0F4B1878FEF748
:1076CC0013FE0028DFD10120DEE7012809D800F0E5
:1076DC00A7F80021007CFEF777FD80F00100C0B216
:1076EC00D2E709380128EED800F0DAF8007CFEF772
:1076FC004BFEF2E7B8E60320BCE60320232838B59E
:10770C0004460D460AD8FF2908D0FFF7B9FF28B167
:10771C0029462046BDE83840FEF7D6BC38BD38B502
:10772C0004460D46FEF7D8FCFF2810D0062804D8D6
:10773C004D2323FA00F0C30709D42046FFF7A0FF1E
:10774C0028B129462046BDE83840FEF7CDBC38BDEF
:10775C0010B50446FEF7C0FC031FDBB2012B08D9A1
:10776C002046FFF78DFF20B12046BDE81040FEF704
:10777C00C3BC002010BD0D2810B504469CBF0E34B0
:10778C00A4B22046FFF77CFF50B103212046FEF740
:10779C0093FC032804D12046BDE81040FEF7BCBC86
:1077AC00002010BD38B504460D46FFF769FFF0B157
:1077BC0004212046FEF780FC042805D1A9B22046FE
:1077CC00BDE83840FEF7A0BC02212046FEF774FC51
:1077DC0002280CD12046FEF77FFC012801D004289A
:1077EC0005D129462046BDE83840FEF79DBC38BD82
:1077FC007047000038B520251423044603608560CB
:10780C0005610649284600F06FF804496060284677
:10781C0000F06AF8E060204638BD00BFE88F0B002E
:10782C0030B50E4D2978BFF35B8F11F0010487B092
:10783C0011D12846FCF73AFC68B101A8FFF7DAFF32
:10784C0001AA21460648FEF749FF2846FCF733FCFF
:10785C00044800F05DF9024807B030BD2CE7032066
:10786C0030E70320FD770B007047000038B5044665
:10787C0014252A46002100F067F925804025074988
:10788C0025812846258200F02FF80449606028469F
:10789C0000F02AF8E060204638BD00BFE88F0B00EE
:1078AC0030B50E4D2978BFF35B8F11F0010487B012
:1078BC0011D12846FCF7FAFB68B101A8FFF7D6FFF7
:1078CC0001AA21460648FFF769FD2846FCF7F3FBA1
:1078DC00044800F01DF9024807B030BD44E703200E
:1078EC0048E7032075780B00FCF7CFBB014900F08B
:1078FC00F9B800BF04900B007FB500241023CDE92C
:10790C000234036815469E6912686B46CDE9004443
:10791C00B0479DF8043003F00603062B03BF009B11
:10792C002B600120204604B070BD0098904214BF1B
:10793C00012006207047000010B5034B036004467D
:10794C0000F0CDF8204610BD44900B0010B5044655
:10795C00FFF7F2FF20460821FCF799FB204610BDEB
:10796C002DE9F0411F46DDE90834DDF81880984513
:10797C000646154607D1079900F0B4F818B16571A1
:10798C000020BDE8F0813946304600F0ABF8002805
:10799C00F6D00123C4F800802571A371F0E738B547
:1079AC0015461C4600F09EF820B10823E360062320
:1079BC002560237138BD73B505460C4601921E46F1
:1079CC0000F090F850B9032E08D82368019A5B692F
:1079DC002946204602B0BDE87040184702B070BD81
:1079EC0010B5034B03600446FFF7A6FF204610BDFD
:1079FC00A4900B0010B50446FFF7F2FF20460C21B3
:107A0C00FCF745FB204610BDF7B5089F974205468D
:107A1C000E4614460AD0A86802680897156A3146C3
:107A2C002246AC4603B0BDE8F040604719460193CE
:107A3C0000F058F8019B0028EDD0062003B0F0BDF3
:107A4C002DE9F14F0D461946DDE90A4BDDE90CA68F
:107A5C0081461746984600F045F890B1002D3460E9
:107A6C00377109DB61198A450CBF06210121B171FF
:107A7C00002001B0BDE8F08F0235F9D10123B371BC
:107A8C00F6E7544506D15946484600F02BF808B1A4
:107A9C007771EDE7D9F808000368CDE90CA6CDE9BC
:107AAC000A4BDC693A4643462946A44601B0BDE878
:107ABC00F04F60472DE9F04107460C4615461E462F
:107ACC00FFF76DFF48B9B86803689F692A463346CB
:107ADC002146BC46BDE8F0416047BDE8F0817047E7
:107AEC0000207047814208B50ED0406803782A2BDD
:107AFC000CD049680B782A2B08BF013100F05AF8DA
:107B0C00B0FA80F0400908BD0120FCE70020FAE73C
:107B1C00002301461A46184600F0FEB80A2200213E
:107B2C0000F0F0B80A22002100F0ECB80A449142AF
:107B3C0000F1FF3300D1704710B511F8014B03F879
:107B4C00014F9142F9D110BD02440346934200D13A
:107B5C00704703F8011BF9E738B5104B1D68AB6B88
:107B6C000446B3B91820FEF70BFD0246A86320B9F2
:107B7C000B4B0C484221FEF72BFD0B490B4BC0E97C
:107B8C0000130B4B83600B23838100210120C2E97E
:107B9C000401AB6B00221C615A6138BD80E50320E7
:107BAC00DD900B00F4900B000E33CDAB34126DE670
:107BBC00ECDE050010F8012B11F8013B012A28BF5F
:107BCC009A42F7D0D01A7047034613F8012B002ABB
:107BDC00FBD1181A0138704710B50139034632B180
:107BEC0011F8014F03F8014B013A002CF7D11A445C
:107BFC000021934200D110BD03F8011BF9E70000EE
:107C0C00012B2DE9F04701D0242B06D9FEF7D8FC27
:107C1C00162303600020BDE8F087DFF8E4C00D46B2
:107C2C002E4615F8014B14F80C7017F00807F7D115
:107C3C002D2C32D12C780127B51C002B5BD0102BAE
:107C4C0009D1302C07D12C7804F0DF04582C4DD1FD
:107C5C006C781023023507F1004808F1FF384FF01B
:107C6C00000CB8FBF3F9664603FB198AA4F1300E3D
:107C7C00BEF1090F16D87446A34224DDBCF1000FE7
:107C8C001EDBB1451CD301D1A24519DB06FB034613
:107C9C004FF0010C15F8014BE8E72B2C04BF2C78A6
:107CAC00B51CCAE7A4F1410EBEF1190F01D8373C3F
:107CBC00E2E7A4F1610EBEF1190F04D8573CDBE7E3
:107CCC004FF0FF3CE6E7BCF1000F05DA222303601E
:107CDC00464642B930469EE707B17642002AF9D0B3
:107CEC00BCF1000F00D0691E1160F3E73024002BAB
:107CFC00B1D10823AFE7302CA5D00A23ABE700BFE6
:107D0C004E910B0013460A46014602480068FFF7E5
:107D1C0077BF00BF80E503202DE9F843DFF8B8807A
:107D2C000646D8F800001F460D46914600F056F85E
:107D3C00254B1C6834B9254C1C60254B13B11B68B2
:107D4C00C4F8883063681F2B07DDD8F8000000F0FA
:107D5C0047F84FF0FF30BDE8F8834EB3D4F88800F5
:107D6C0088B91C4B23B9D8F8000000F038F8F0E7BC
:107D7C004FF48470FEF704FC0028F4D00023C0E913
:107D8C004033C4F88800636840F8239001229A407D
:107D9C0000EB8301D0F800311343C0F80031022E00
:107DAC00C1F8807002BFD0F804311343C0F804311D
:107DBC006368D8F800005A1C0233626044F8235000
:107DCC0000F00EF80020C6E7E8E703205CE703208C
:107DDC00000000008D650B00E4E503207047704740
:107DEC00704700001D400B0059400B0081400B00F8
:107DFC0085400B000000000043616C6C206F6E200E
:107E0C0070757265207669727475616C00256900F5
:107E1C00256C6900696E006F75740070776D006475
:107E2C0077006177007677002575006765763955A0
:107E3C006C5748757053387943424A3277704458BE
:107E4C00444E6D3654484D75306F5300626C6E6BFA
:107E5C00696E660076657200312E312E3000682D09
:107E6C006265617400343500627566662D696E005A
:107E7C003130323400646576005061727469636C21
:107E8C0065204172676F6E006275696C64004A759B
:107E9C006E20333020323032322031383A33333A9C
:107EAC00303000000000000000003E5B4F5B3E3EA7
:107EBC006B4F6B3E1C3E7C3E1C183C7E3C181C578A
:107ECC007D571C1C5E7F5E1C00183C1800FFE7C32E
:107EDC00E7FF0018241800FFE7DBE7FF30483A06FD
:107EEC000E2629792926407F050507407F05253F69
:107EFC005A3CE73C5A7F3E1C1C08081C1C3E7F1455
:107F0C00227F22145F5F005F5F06097F017F00669E
:107F1C0089956A606060606094A2FFA29408047EF8
:107F2C00040810207E201008082A1C08081C2A08A7
:107F3C00081E101010100C1E0C1E0C30383E383061
:107F4C00060E3E0E06000000000000005F00000060
:107F5C0007000700147F147F14242A7F2A1223138E
:107F6C0008646236495620500008070300001C22A2
:107F7C0041000041221C002A1C7F1C2A08083E08D4
:107F8C0008008070300008080808080000606000D5
:107F9C0020100804023E5149453E00427F400072C9
:107FAC00494949462141494D331814127F10274540
:107FBC004545393C4A49493141211109073649495E
:107FCC004936464949291E0000140000004034007F
:107FDC000000081422411414141414004122140833
:107FEC0002015909063E415D594E7C1211127C7FEB
:107FFC00494949363E414141227F4141413E7F49F9
:10800C004949417F090909013E414151737F0808E3
:10801C00087F00417F41002040413F017F0814222E
:10802C00417F404040407F021C027F7F0408107F4C
:10803C003E4141413E7F090909063E4151215E7F87
:10804C0009192946264949493203017F01033F405A
:10805C0040403F1F2040201F3F4038403F631408E2
:10806C00146303047804036159494D43007F414173
:10807C00410204081020004141417F040201020426
:10808C004040404040000307080020545478407F93
:10809C00284444383844444428384444287F3854CD
:1080AC0054541800087E090218A4A49C787F080474
:1080BC00047800447D40002040403D007F1028445F
:1080CC000000417F40007C047804787C080404782C
:1080DC003844444438FC1824241818242418FC7CF4
:1080EC0008040408485454542404043F44243C40D9
:1080FC0040207C1C2040201C3C4030403C4428103C
:10810C0028444C9090907C4464544C440008364174
:10811C000000007700000041360800020102040252
:10812C003C2623263C1EA1A161123A4040207A38FD
:10813C00545455592155557941225454784221555E
:10814C0054784020545579400C1E527212395555B2
:10815C005559395454545939555454580000457C88
:10816C00410002457D420001457C407D1211127D8B
:10817C00F0282528F07C545545002054547C547C20
:10818C000A097F4932494949323A4444443A324A0D
:10819C004848303A4141217A3A42402078009DA02B
:1081AC00A07D3D4242423D3D4040403D3C24FF24A9
:1081BC0024487E4943662B2FFC2F2BFF0929F620E0
:1081CC00C0887E090320545479410000447D41301D
:1081DC0048484A32384040227A007A0A0A727D0DA9
:1081EC0019317D2629292F28262929292630484D61
:1081FC004020380808080808080808382F10C8ACB0
:10820C00BA2F102834FA00007B000008142A14221C
:10821C0022142A14085500550055AA55AA55AAFF30
:10822C0055FF55FF000000FF00101010FF00141444
:10823C0014FF001010FF00FF1010F010F0141414B5
:10824C00FC001414F700FF0000FF00FF1414F404EA
:10825C00FC141417101F10101F101F1414141F00DF
:10826C00101010F0000000001F101010101F101044
:10827C001010F010000000FF101010101010101053
:10828C0010FF10000000FF140000FF00FF00001F93
:10829C0010170000FC04F414141710171414F40431
:1082AC00F40000FF00F714141414141414F700F75E
:1082BC00141414171410101F101F141414F4141089
:1082CC0010F010F000001F101F0000001F14000021
:1082DC0000FC140000F010F01010FF10FF14141428
:1082EC00FF141010101F00000000F010FFFFFFFF24
:1082FC00FFF0F0F0F0F0FFFFFF0000000000FFFFC8
:10830C000F0F0F0F0F3844443844FC4A4A4A347E4E
:10831C0002020606027E027E02635549416338441E
:10832C00443C04407E201E2006027E020299A5E7F2
:10833C00A5991C2A492A1C4C7201724C304A4D4D8D
:10834C00303048784830BC625A463D3E4949490075
:10835C007E0101017E2A2A2A2A2A44445F44444091
:10836C00514A444040444A51400000FF0103E08020
:10837C00FF000008086B6B083612362436060F090E
:10838C000F06000018180000001010003040FF010C
:10839C0001001F01011E00191D1712003C3C3C3C42
:1083AC0000000000000000000000000000000000C1
:1083BC000000000000000000A9530B003D6A0B00F8
:1083CC00A1400B00AF4D0B00B14D0B00E34D0B006A
:1083DC00BF4D0B00D14D0B00F14C0B00AF4D0B0002
:1083EC00DB4F0B00D94F0B00FB4D0B00394E0B0034
:1083FC00734E0B00B94E0B00D54E0B00594F0B00B2
:10840C0064656661756C7420004D5342004C534298
:10841C00003C53504953657474696E6773206465EE
:10842C006661756C743E003C5350495365747469B5
:10843C006E67732025732575202573204D4F444599
:10844C0025753E000000000000000000E5540B0004
:10845C00B7540B00B9540B00000000000001800061
:10846C00000000000000000003800000000000007D
:10847C0000000007C000000000000000000007C062
:10848C000000000000000000000FC0000000000011
:10849C00000000001FE00000000000000000001FB2
:1084AC00E00000000000000000003FE000000000C1
:1084BC0000000000003FF000000000000000000081
:1084CC007FF0000000000000001FF87FF0000000AB
:1084DC00000000003FFE7FF0000000000000003FA5
:1084EC00FF7FF0000000000000001FFFFBE0000019
:1084FC0000000000000FFFF9FFC0000000000000AA
:10850C000FFFF9FFF800000000000007FFF1FFFF6C
:10851C0000000000000003FC73FFFF80000000005F
:10852C000001FE3FFFFF80000000000000FF1E0F57
:10853C00FF000000000000007FFE1FFC0000000098
:10854C000000003FFFFFF8000000000000000FDFFC
:10855C00FFE0000000000000001F19FFC000000039
:10856C00000000003F3CFF00000000000000007E07
:10857C007CF800000000000000007FFE7C00000082
:10858C000000000000FFFFFC0000000000000000E5
:10859C00FFFFFE0000000000000000FFFFFE0000D7
:1085AC00000000000001FFEFFE00000000000000D2
:1085BC0001FFCFFE0000000000000003FF07FE00DB
:1085CC0000000000000003FC07FE0000000000009B
:1085DC000003F003FE00000000000000018000FE1C
:1085EC00000000000000000000007E000000000001
:1085FC0000000000003E0000000000000000000031
:10860C000C000000000000078000FC000003C0000C
:10861C000000078001FC000003C00000000780017F
:10862C00FC000003C0000000078001E00000001EF9
:10863C00000000078001E00000001E007FE3F79FB0
:10864C00F9FDE7787BDFC0FFF7FFBFFDFDFF787B0F
:10865C00DFC0FFF7FFBFFDFDFF787BDFC0F0F787C2
:10866C00BC3DE1FF787BDE00F0F787BC3DE1F078A4
:10867C007BDE0000F787803DE1E0787BDE007FF752
:10868C00879FFDE1E0787BDE00FFF787BFFDE1E02F
:10869C00787BDE00F0F787BC3DE1E0787BDE00F014
:1086AC00F787BC3DE1E0787BDE00F0F787BC3DE16D
:1086BC00E0787BDE00FFF7FFBFFDE1E07FFBDFC072
:1086CC00FFF7FFBFFDE1E07FFBDFC07CF3F39F3DD5
:1086DC00E1E03E7BCFC00000000000000000000085
:1086EC0000FFFFFFFFFFFFFFFFFFFFC0FFFFFFFFCC
:1086FC00FD68DB111A31C0FFFFFFFFFD2B5AFB6A2F
:10870C00EFC0FFFFFFFFFD4B5B3B1A33C0FFFFFFCA
:10871C00FFFD6B5BDB6AFDC0000060000000000029
:10872C00000000000000000000E00000000000005D
:10873C000000000000000001E0000000000000004C
:10874C0000000000000001F000000000000000002C
:10875C00000000000003F00000000000000000001A
:10876C000000000007F00000000000000000000006
:10877C0000000007F80000000000000000000000EE
:10878C0000000FF800000003C0007E000001E000B4
:10879C007F0FF800000003C000FE000001E000FFA6
:1087AC00EFF800000003C000FE000001E000FFFF36
:1087BC00F800000003C000F00000000F007FFE7FF7
:1087CC00C0000003C000F00000000F003FFE7FF867
:1087DC003FF1FBCFFCFEF3BC3DEFE01FFE7FFF7FC4
:1087EC00FBFFDFFEFEFFBC3DEFE01FC6FFFF7FFB84
:1087FC00FFDFFEFEFFBC3DEFE00FE3C7FE787BC35F
:10880C00DE1EF0FFBC3DEF0007FF87FC787BC3DE6C
:10881C001EF0F83C3DEF0001FFFFF0007BC3C01ED3
:10882C00F0F03C3DEF0001F37FE03FFBC3CFFEF0E7
:10883C00F03C3DEF0003E33F807FFBC3DFFEF0F035
:10884C003C3DEF0007E73C00787BC3DE1EF0F03CBC
:10885C003DEF0007FFBE00787BC3DE1EF0F03C3D11
:10886C00EF0007FFFE00787BC3DE1EF0F03C3DEF0F
:10887C00000FFFFE007FFBFFDFFEF0F03FFDEFE09F
:10888C000FFFFF007FFBFFDFFEF0F03FFDEFE00F7F
:10889C00F9FF003E79F9CF9EF0F01F3DE7E01FF1A4
:1088AC00FF0000000000000000000000001F80FF1F
:1088BC00007FFFFFFFFFFFFFFFFFFFE01C007F00BB
:1088CC007FFFFFFFFEB46D888D18E000001F007F56
:1088DC00FFFFFFFE95AD7DB577E000000F007FFF39
:1088EC00FFFFFEA5AD9D8D19E0000006007FFFFF88
:1088FC00FFFEB5ADEDB57EE000000000000000000D
:10890C0039550B0051550B00A9530B003D6A0B0058
:10891C0065550B00AF4D0B00B14D0B00E34D0B003B
:10892C00BF4D0B00D14D0B00F14C0B00AF4D0B00AC
:10893C00DB4F0B0003570B00AB5C0B005D5C0B00BB
:10894C00734E0B00B94E0B00D54E0B00594F0B005C
:10895C000080C0E0F0F8FCFE000103070F1F3F7F12
:10896C00AED580A8D300408D2000A1C8DB40A4A6C2
:10897C002EAFDA02818FDA1281DA02812200FF2116
:10898C0000000000E75E0B00E75E0B00E75E0B00EB
:10899C00E75E0B00E75E0B00E75E0B00E75E0B008B
:1089AC00E75E0B00E75E0B00E75E0B00E75E0B007B
:1089BC00E75E0B00E75E0B00E75E0B00E75E0B006B
:1089CC00E75E0B00E75E0B00E75E0B00E75E0B005B
:1089DC00E75E0B00E75E0B00E75E0B00E75E0B004B
:1089EC00E75E0B00E75E0B00E75E0B00E75E0B003B
:1089FC00E75E0B00E75E0B00E75E0B00E75E0B002B
:108A0C00E75E0B00E75E0B00E75E0B00E75E0B001A
:108A1C00E75E0B00E75E0B00E75E0B00E75E0B000A
:108A2C00E75E0B00E75E0B00E75E0B00E75E0B00FA
:108A3C00E75E0B00E75E0B00E75E0B00E75E0B00EA
:108A4C00E75E0B00E75E0B00E75E0B00E75E0B00DA
:108A5C00E75E0B00E75E0B00E75E0B00E75E0B00CA
:108A6C00E75E0B00E75E0B00E75E0B00E75E0B00BA
:108A7C00E75E0B00E75E0B00E75E0B00E75E0B00AA
:108A8C00E75E0B00E75E0B00E75E0B00E75E0B009A
:108A9C00E75E0B00E75E0B00E75E0B00E75E0B008A
:108AAC00E75E0B00E75E0B00E75E0B00E75E0B007A
:108ABC00E75E0B00E75E0B00E75E0B00E75E0B006A
:108ACC00E75E0B00E75E0B00E75E0B00E75E0B005A
:108ADC00E75E0B00E75E0B00E75E0B00E75E0B004A
:108AEC00E75E0B00E75E0B00E75E0B00E75E0B003A
:108AFC00E75E0B00E75E0B00E75E0B00E75E0B002A
:108B0C00E75E0B00E75E0B00E75E0B00E75E0B0019
:108B1C00E75E0B00E75E0B00E75E0B00E75E0B0009
:108B2C00E75E0B00E75E0B00E75E0B00E75E0B00F9
:108B3C00E75E0B00E75E0B00E75E0B00E75E0B00E9
:108B4C00E75E0B00E75E0B00E75E0B00E75E0B00D9
:108B5C00E75E0B00E75E0B00E75E0B00E75E0B00C9
:108B6C00E75E0B00E75E0B00E75E0B00E75E0B00B9
:108B7C00E75E0B00E75E0B00E75E0B00E75E0B00A9
:108B8C00E75E0B00E95E0B00E95E0B00E95E0B0093
:108B9C00E95E0B00E95E0B00E95E0B00E95E0B0081
:108BAC00E95E0B00E95E0B00E95E0B00E95E0B0071
:108BBC00E95E0B00E95E0B00E95E0B00E95E0B0061
:108BCC00E95E0B00E95E0B00E95E0B00E95E0B0051
:108BDC00E95E0B00E95E0B00E95E0B00E95E0B0041
:108BEC00E95E0B00E95E0B00E95E0B00E95E0B0031
:108BFC00E95E0B00E95E0B00E95E0B00E95E0B0021
:108C0C00E95E0B00E95E0B00E95E0B00E95E0B0010
:108C1C00E95E0B00E95E0B00E95E0B00E95E0B0000
:108C2C00E95E0B00E95E0B00E95E0B00E95E0B00F0
:108C3C00E95E0B00E95E0B00E95E0B00E95E0B00E0
:108C4C00E95E0B00E95E0B00E95E0B00E95E0B00D0
:108C5C00E95E0B00E95E0B00E95E0B00E95E0B00C0
:108C6C00E95E0B00E95E0B00E95E0B00E95E0B00B0
:108C7C00E95E0B00E95E0B00E95E0B00E95E0B00A0
:108C8C00E95E0B00E95E0B00E95E0B00E95E0B0090
:108C9C00E95E0B00E95E0B00E95E0B00E95E0B0080
:108CAC00E95E0B00E95E0B00E95E0B00E95E0B0070
:108CBC00E95E0B00E95E0B00E95E0B00E95E0B0060
:108CCC00E95E0B00E95E0B00E95E0B00E95E0B0050
:108CDC00E95E0B00E95E0B00E95E0B00E95E0B0040
:108CEC00E95E0B00E95E0B00E95E0B00E95E0B0030
:108CFC00E95E0B00E95E0B00E95E0B00E95E0B0020
:108D0C00E95E0B00E95E0B00E95E0B00E95E0B000F
:108D1C00E95E0B00E95E0B00E95E0B00E95E0B00FF
:108D2C00E95E0B00E95E0B00E95E0B00E95E0B00EF
:108D3C00E95E0B00E95E0B00E95E0B00E95E0B00DF
:108D4C00E95E0B00E95E0B00E95E0B00E95E0B00CF
:108D5C00E95E0B00E95E0B00E95E0B00E95E0B00BF
:108D6C00E95E0B00E95E0B00E95E0B00E95E0B00AF
:108D7C00E95E0B00E95E0B00E95E0B00E95E0B009F
:108D8C00E95E0B000000000000000000155F0B0006
:108D9C00355F0B00A9530B003D6A0B0065550B00AA
:108DAC00AF4D0B00B14D0B00E34D0B00BF4D0B0055
:108DBC00D14D0B00F14C0B00AF4D0B00DB4F0B00FA
:108DCC0003570B00AB5C0B005D5C0B00734E0B0090
:108DDC00B94E0B00D54E0B00594F0B000000000094
:108DEC0000000000000000000000000073660B0093
:108DFC0069660B005F660B0055660B0049660B003D
:108E0C003D660B0019690B0021690B0031660B00E4
:108E1C0029660B001F660B0015660B0051690B00D1
:108E2C00000000000000000091660B00DB660B00E8
:108E3C00B3660B0093660B00BB660B00C3660B009E
:108E4C00CB660B00D3660B00000000000000000096
:108E5C00A5670B0095670B0097670B00617070009E
:108E6C000000000000000000D9680B00E3680B0054
:108E7C00ED680B00F7680B0001690B000D690B0026
:108E8C0019690B0021690B0029690B0035690B006E
:108E9C003D690B0047690B0051690B000008101865
:108EAC0020283038776972696E67007265637620A6
:108EBC006572726F72203D20256400000000000076
:108ECC0000000000BD6D0B00E16D0B0013730B0077
:108EDC00EF6D0B00C16D0B000000000000000000E6
:108EEC006D6E0B00A16E0B00396D0B00536D0B00FA
:108EFC00A9710B007D6D0B001F700B00B16D0B0089
:108F0C00B1700B00F16E0B004D700B005D720B001D
:108F1C00ED6F0B00B36D0B00656D0B00F56D0B0069
:108F2C00D16E0B0025592D256D2D25645425483AFD
:108F3C00254D3A2553257A0061736374696D65007C
:108F4C0000000000000000002D730B0099730B0053
:108F5C0071730B003D6A0B0041730B005D730B00CA
:108F6C004F730B006B730B002F730B0033730B00E1
:108F7C000000000000000000D7730B003F740B00D2
:108F8C0015740B003D6A0B0007740B00D9730B00B2
:108F9C00E9730B0039740B00F9730B00D1730B00E0
:108FAC00000000000000000037750B002D750B0051
:108FBC0023750B00D9740B0017750B000B750B0088
:108FCC0019690B0021690B00FF740B00F7740B007F
:108FDC00ED740B00E3740B0051690B0000537431FA
:108FEC00395F53705F6D616B655F73686172656447
:108FFC005F7461670000000044900B00E98F0B0068
:10900C00A4900B0018900B00C8900B004E31305FF1
:10901C005F637878616269763131375F5F636C6169
:10902C0073735F747970655F696E666F45000000DD
:10903C00000000000C900B0045790B0059790B00D7
:10904C00ED7A0B00ED7A0B00C3790B0005790B0060
:10905C00AB790B006D790B0037790B00A4900B00EA
:10906C0074900B000C900B004E31305F5F6378787E
:10907C00616269763132305F5F73695F636C617313
:10908C00735F747970655F696E666F4500000000F0
:10909C000000000068900B00ED790B00017A0B00CA
:1090AC00ED7A0B00ED7A0B00C3790B0005790B0000
:1090BC00C17A0B004D7A0B00157A0B0044900B0013
:1090CC00D0900B00537439747970655F696E666F5C
:1090DC00005245454E54206D616C6C6F6320737566
:1090EC0063636565646564002F746D702F6A656ECB
:1090FC006B696E732D4743432D31302D706970654C
:10910C006C696E652D34385F323032303131323427
:10911C005F313630363138303633392F7372632F36
:10912C006E65776C69622F6E65776C69622F6C69FE
:10913C0062632F7374646C69622F72616E642E6348
:10914C00000020202020202020202028282828282B
:10915C002020202020202020202020202020202003
:10916C00202088101010101010101010101010105B
:10917C00101004040404040404040404101010105B
:10918C001010104141414141410101010101010116
:10919C000101010101010101010101010110101086
:1091AC0010101042424242424202020202020202E9
:1091BC000202020202020202020202020210101059
:1091CC001020000000000000000000000000000063
:1091DC000000000000000000000000000000000083
:1091EC000000000000000000000000000000000073
:1091FC000000000000000000000000000000000063
:10920C000000000000000000000000000000000052
:10921C000000000000000000000000000000000042
:10922C000000000000000000000000000000000032
:10923C000000000000000000000000000000000022
:10924C0000000000A94C0B0005660B007D660B00AE
:10925C00C9680B00296A0B00516B0B00156D0B00D4
:10926C0019730B0041750B0000000000000000009A
:04927C0000000000EE
:10928000040000001400000003000000474E5500D9
:1092900018B8B74C69D038468682599F88DC14FFCD
:0492A0002155D84933
:0492A40000000000C6
:1092A800448F0B0084E5032000000000000000004C
:1092B80000000000000000000000000000000000A6
:1092C8000000000000000000000000000000000096
:1092D8000000000000000000000000000000000086
:1092E8000000000000000000000000000000000076
:1092F8000000000000000000000000000000000066
:0C9308000000000000000000ECE7032063
:10931400FFFFFFFF00000102030405060708090A16
:109324000B0C0D0E0F101112131415161718191A11
:089334001B1C1D1E1F20280058
:04933C007856341219
:04000003B000401CED
:00000001FF
